S00B00004354432E737265633F
S113000071C0000079C0000077C0000075C0000016
S113001073C0000071C000006FC000006DC000001C
S11300206BC0000069C0000067C0000065C000002C
S113003063C0000061C000005FC000005DC000003C
S11300405BC0000079C0000057C0000055C000002C
S113005053C0000051C000004FC000004DC000005C
S11300604BC0000049C0000047C0000045C000006C
S113007043C0000041C000003FC000003DC000007C
S11300803BC0000039C0000037C0000035C000008C
S113009033C0000031C000002FC000002DC000009C
S11300A02BC0000029C0000027C0000025C00000AC
S11300B023C0000021C000001FC000001DC00000BC
S11300C01BC0000019C0000017C0000015C00000CC
S11300D013C0000011C000000FC000000DC00000DC
S11300E00BC0000011241FBECFEFD1E2DEBFCDBF95
S11300F000E00CBF1CD03FC083CF2F9AF89410921D
S11301008000E1E8F0E01082808188608083808153
S1130110846080838FE492E19093890080938800C7
S1130120EFE6F0E08081826080837894089580E82F
S113013084B915B8E2DFFFCF1F920F920FB60F926A
S113014011248F939F932F9908C02F9A8FE492E1E3
S1130150909389008093880007C02F9882E19FE3E1
S113016090938900809388009F918F910F900FBE88
S10D01700F901F901895F894FFCF2C
S9030000FC
